:020000040800F2
:1000000000040020E1080008C10C0008C10C000831
:10001000C10C0008C10C0008C10C0008C10C00088C
:10002000C10C0008C10C0008C10C0008A1070008A1
:10003000C10C0008C10C0008C10C000871080008C0
:10004000C10C0008C10C0008C10C0008C10C00085C
:10005000C10C0008C10C0008C10C0008C10C00084C
:10006000C10C0008C10C0008C10C0008A10A00085E
:10007000D10A0008010B0008310B0008610B0008D1
:10008000910B0008C10B0008C10C0008C10C00084E
:10009000C10C0008C10C0008C10C0008C10C00080C
:1000A000C10C0008C10C0008C10C0008C10C0008FC
:1000B000C10C0008C10C0008C10C0008C10C0008EC
:1000C000C10C0008C10C0008C10C0008C10C0008DC
:1000D000C10C0008C10C0008C10C0008C10C0008CC
:1000E000C10C0008C10C0008C10C0008C10C0008BC
:0400F000C10C000837
:0800F4000101000831020008BF
:10010000034B00229A6103F11C029A64DA6470477F
:100110008C0900200000000000000000000000002A
:100120001FB5334C334D022000F04AFF204600F04B
:10013000B7FE00F035FC00F0EBF928464FF4E13152
:1001400001F0EEFB28462C49226801F0D1FB2B4B35
:100150002B4C9A692B4B20465A6001F049FDA3684D
:10016000012132221A6020460A46274B01F010FD79
:10017000264C274800F054FE0025022216238DE865
:100180002C0004F1200003224FF08043214901F0AC
:100190008FF92046204C214901F012FFA06A01F09E
:1001A000BFF8FF200121A28C94F82C308DE80300C9
:1001B000A06A216A01F014F9A36A04F120001A88E8
:1001C000294692B242F001021A8001F071FE20230A
:1001D00083F31188124B2046A361E36123689B6877
:1001E0009847002383F31188064801F0F9FE00BF09
:1001F00080090020DC090020832A00080417002061
:10020000CC0F0020FC160020942A00089C16002029
:100210007C09002000040240C8160020302A000893
:10022000B02A0008000000000000000000000000EC
:10023000134BF0B500241C705C60124A124B134E35
:100240001A609C61DC611C625C629C62104B3546EA
:1002500045F8203B0F4B85B000930423ADF80430E4
:100260000D4B04AF02930123039317E90F00B46110
:10027000F46185E80F0086F8304005B0F0BD00BF9E
:10028000FC160020F82900089C160020C816002043
:10029000182A00080004024000040040000000008A
:1002A00038B50D46044610B90C4801F0C1F9636A2F
:1002B00045EA0301237F6162082B03D1236A1942B7
:1002C00006D138BD092B08D1236A1940994204D1BF
:1002D000204600F035F80023036238BD6A2100088B
:1002E00038B50B4B05469C69202383F31188606A5F
:1002F000284005D10820256200F062F8606A284095
:10030000636A23EA00036362002383F3118838BD24
:1003100004170020000000000000000000000000A2
:10032000034B00225B601B609A605B611B6170473E
:100330000417002000000000000000000000000082
:1003400010B5037F04460BB10E2B02D1084801F013
:100350006FF900232377A168064B1B689A688A42CD
:10036000FBD25A682360626020465C60146010BD56
:10037000F021000804170020000000000000000029
:1003800008B5202383F31188037F83B1032B08D1A1
:10039000036A9A6801329A6090E80C001A60026859
:1003A00053604FF0FF330362FFF7CAFF002383F36C
:1003B000118808BD000000000000000000000000DF
:1003C000064B14229969087718688A770268536087
:1003D0001A6098610123037700F05ABA04170020CD
:1003E00030B54B1C87B005460A4C0DD0A36901A857
:1003F000094A00F085F92846FFF7E2FF049B2BB17C
:1004000001A800F0A5F901E0FFF7DAFFA369186A77
:1004100007B030BD04170020810300080000000071
:1004200038B50C4D0162AB6981689A680446914207
:1004300003D8BDE83840FFF783BF1846FFF780FFB9
:1004400001230146AC6123772046BDE8384000F027
:100450001FBA00BF041700200000000000000000C9
:1004600038B50A4C2368A5691A682846546022608A
:100470000122A3611A771423AB77FFF761FFA0690C
:100480002946BDE8384000F003BA00BF0417002039
:100490000C4B10B51868996902688C6853601A6033
:1004A00001220277002298610A771B689A68A242AB
:1004B000FBD85A680B604A60BDE810405960116073
:1004C00000F0E6B904170020000000000000000062
:1004D000034B9B699B7F0BB9FFF7C2BFFFF7D8BFE8
:1004E00004170020000000000000000000000000D1
:1004F000024B034A9B699A61FEE700BF0417002084
:1005000010220008000000000000000000000000B1
:1005100007B500F055F9FFF703FF00F0E1F84021BF
:100520000C4800F04DF80C4B986101230377002331
:1005300083F3118862B6084B084A9B69A0219A612F
:10054000002300930122064B064800F079F803B01F
:100550005DF804FB0008002004170020D0210008EB
:10056000F104000820170020000000000000000037
:1005700038B5114B9B699A7F0AB1013A9A770F4BB4
:10058000DA681C460132DA601A689A4213D0916820
:100590000139916022680949936863B91068D56888
:1005A0000860D360416083F311881069A847202355
:1005B00083F31188EEE738BD04170020C017002030
:1005C000022202770022427742628261044A8160FD
:1005D000142181775169026141615061086170475E
:1005E00004170020000000000000000000000000D0
:1005F0002DE9F041DDF818800D4616461F460446E9
:1006000020B18F2902D97F2A00D813B9084801F0F8
:100610000FF8243D074B6019E06031466751C0F880
:10062000048003622046BDE8F041FFF7C9BF00BF68
:1006300020220008A10800080000000000000000BF
:1006400037B51D46202383F31188069C2B46009462
:10065000FFF7CEFF00210446FFF7E2FE002383F3FD
:100660001188204603B030BD0000000000000000EB
:1006700010B5044610B9074800F0DAFF202383F3D1
:10068000118806202146FFF7ABFE002383F3118873
:1006900010BD00BF5822000800000000000000004C
:1006A00008B5094B9B695A7F1862920704D15A69B1
:1006B000196911611B695A610E20FFF781FEBDE8BF
:1006C0000840024800F0B4BF041700206722000869
:1006D000202383F31188FFF7E3BF00000000000030
:1006E000044B4FF0FF329A6000225B601B60DA60BF
:1006F000704700BFC017002000000000000000008D
:10070000F8B50D4616461F46044608B102B111B9A8
:100710000C4800F08DFF0C4A27611368E660114613
:100720009A68AA4202D2AD1A1B68F9E75A688B424E
:10073000236062605C601460A56002D09A68551BFB
:100740009D60F8BD80220008C01700200000000056
:1007500010B5044610B90B4800F06AFFE36813B9FE
:10076000094800F065FF2368084A934203D099685E
:10077000A2680A449A606268136023685A60002382
:10078000E36010BD8D2200089C220008C0170020E5
:10079000FFF79EFE00DF00000000000000000000E8
:1007A000EFF30983203383F30988002383F311884F
:1007B0007047000000000000000000000000000082
:1007C00008B50A4B00229A60094A0720DA60102116
:1007D00000F04EF90A204FF4007100F049F9BDE82D
:1007E00008400B20802100F043B900BF00ED00E07D
:1007F0000003FA05000000000000000000000000F7
:10080000202383F31188144B5B6813F4006320D01A
:10081000EFF30983A3F1200282F309884FF080727D
:1008200043F8042C0D4A91691268887F92688968A0
:1008300020B18A4294BF0022012203E08A4234BFE1
:10084000002201220AB1064A00E0064A43F8082CB9
:10085000704783F31188704700ED00E00417002013
:100860009107000894070008000000000000000045
:1008700008B5202383F31188FFF77AFE002383F362
:100880001188BDE80840FFF7BBBF00000000000072
:100890002DE9F04FC1F80CD0D0F80CD0BDE8F08FA6
:1008A000002383F311882846A047FFF711FF704704
:1008B0007047000000000000000000000000000081
:1008C0007047000000000000000000000000000071
:1008D000FEE7000000000000000000000000000033
:1008E00072B6224B83F30988022383F31488BFF383
:1008F0006F8F1F4B1D4A1F498B4204D24FF0553159
:1009000043F8041BF7E71C4B934204D24FF05531D8
:1009100043F8041BF8E7FFF7CBFF0023174A1849F9
:100920009818884204D21749595899500433F5E76A
:10093000154B164A934203D2002243F8042BF8E7E2
:10094000FFF7BEFF124C134B9C4203D254F8043BFA
:100950009847F8E7FFF7E4FB0F4C104B9C4203D29B
:1009600054F8043B9847F8E7FFF7B2FF000800206F
:1009700000000020000400200004002000080020E7
:1009800000080020E02A000800080020D0170020FE
:10099000F4000008FC000008FC000008FC0000084F
:1009A00000F006B800000000000000000000000099
:1009B000154B1A6962F400421A6100221A619969A2
:1009C00061F0805199619A6159694FF0FF31596125
:1009D0005A61196A41F001011962D96A41F00101B5
:1009E000D9620A4908684FF47A71B0FBF1F00849FE
:1009F000013848608A6007220A605A6A42F08052D1
:100A00005A6200F0F5B800BF0038024080090020AB
:100A100010E000E000000000000000000000000006
:100A200000F0030230B5D200FF249440914020F042
:100A3000030303F1604303F56143D3F8005301223C
:100A400025EA04040C43C3F8004300F01F0302FA34
:100A500003F34009800000F1604000F56140C0F8F8
:100A60008031036030BD0000000000000000000085
:100A700020F0030300F00300C000FF228240814009
:100A800003F1604310B503F56D439C6924EA02024B
:100A90000A439A6110BD0000000000000000000041
:100AA00008B5074B0F2219685A60064A01F00F017A
:100AB00013680BB150689847BDE80840FFF7A0BE27
:100AC0000060024028080020000000000000000034
:100AD00008B5074BF02219685A60064AC1F30311A2
:100AE00093680BB1D0689847BDE80840FFF788BE0F
:100AF0000060024028080020000000000000000004
:100B000008B5084B4FF4706219685A60064AC1F381
:100B1000032113690BB150699847BDE80840FFF7FE
:100B20006FBE00BF006002402808002000000000E7
:100B300008B5084B4FF4704219685A60064AC1F371
:100B4000033193690BB1D0699847BDE80840FFF7BE
:100B500057BE00BF006002402808002000000000CF
:100B600008B5084B4FF4702219685A60064AC1F361
:100B70000341136A0BB1506A9847BDE80840FFF77C
:100B80003FBE00BF006002402808002000000000B7
:100B900008B5084B4FF4700219685A60064AC1F351
:100BA0000351936A0BB1D06A9847BDE80840FFF73C
:100BB00027BE00BF0060024028080020000000009F
:100BC00008B5084B4FF0706219685A60064AC1F3C5
:100BD0000361136B0BB1506B9847BDE80840FFF7FA
:100BE0000FBE00BF00600240280800200000000087
:100BF000094A002313600C215943084A89580022EE
:100C00000A60074941F833200133072BF3D1054B24
:100C10004FF0FF325A607047600800200023000840
:100C200028080020006002400000000000000000D2
:100C30002DE9F0410F4615469846044610B91A486A
:100C400000F0F6FC627A012000FA02FC174E3168CF
:100C50001CEA010F26D116484CEA010340F8325035
:100C6000336000EBC2025B06C2F8048004D0114B73
:100C7000DA6942F08072DA6123680F201A68002670
:100C800022F00F021A60217A626800FA01F1116005
:100C90001E6035B1A07A3901FFF7C2FE3046BDE8CB
:100CA000F0812846BDE8F081B022000860080020ED
:100CB000280800200038024000000000000000006A
:100CC000FEE700000000000000000000000000003F
:100CD000F0B505680022AA423BD0036903EBC204C9
:100CE000A18853F83230A6791A4CA34205D104F5F5
:100CF0006054E76947F0010719E0174CA34205D19A
:100D000004F55054E76947F0020710E0134CA34282
:100D100005D104F54054E76947F0040707E0104C9B
:100D2000A34205D104F53054E76947F00807E761AD
:100D3000490003248C4006FA01F11F68E443274070
:100D40001F60DF6801323C40DC60DC682143D96011
:100D5000C1E7F0BD0000024000040240000802406C
:100D6000000C024000000000000000000000000035
:100D7000F8B5002504462E4623689E4216D26168C7
:100D800023696269C1B158198088012707FA00F008
:100D90005959098A89B208420ED0915D61B9202360
:100DA00083F311881B4B616858682BE0E368002BC4
:100DB0002ED020469847F8BDA16859B159198988A5
:100DC000012000FA01F15B591B8A9BB2194201D143
:100DD000935D8BB923690120591989885B5900FA01
:100DE00001F11A8A636992B211420CBF00220122FA
:100DF0009A5508350644BFE7202383F31188054B35
:100E0000A1685868FFF74CFA002383F31188E1E7E3
:100E1000F8BD00BFFC16002000000000000000002C
:100E200007B50948FFF754FF0848FFF751FF0023B3
:100E300000934FF488710222054B0648FFF700FC2F
:100E400003B05DF804FB00BF8023000860230008A6
:100E5000810E00086808002000000000000000006B
:100E600008B54820FFF704FC0348FFF781FF03485B
:100E7000FFF77EFFF5E700BF80230008602300082E
:100E800008B5034B034A9B6903489A61FFF7E8FFE3
:100E900004170020B02300087C0900200000000097
:100EA000F0B593B00021202205460AA801F0E0F831
:100EB0004FF480330A934FF400330B934FF48023A5
:100EC0000C93344B344A0D93344B51680E93344B8E
:100ED00010680F93334B06AE109303AB03C3117A24
:100EE000197002F109031932174618685968344617
:100EF00003C4083393422646F7D13868796801ABBA
:100F000003C3294B9A68C2F38102022A24D0032A20
:100F10000CD0012A01D1254B1FE05B6812A8C3F356
:100F2000423300EB830353F8203C16E09A6812A981
:100F3000C2F383420A4412F83C1C9A689B681C481E
:100F400013F4803F194BC2F3815218BF03464B4341
:100F50000132B3FBF2F300E0154B134A12A891687B
:100F6000C1F30311014411F8301CCB402B60916890
:100F7000C1F30221014411F8441C23FA01F1696014
:100F80009268C2F3C222024412F8442CD340AB60F0
:100F900013B0F0BD9CFF070010210008C0FD0F003A
:100FA00068FF1F00D0FE3F00003802400024F4001C
:100FB00000127A00000000000000000000000000A5
:100FC000094B4FF080525A62084B5A68D106FBD445
:100FD0001A6822F4C05242EAC0221A605A68D20645
:100FE000FCD4034B1870704700380240007000407A
:100FF0007D0900200000000000000000000000004B
:1010000010B50246202383F311880B4B0068DC687F
:10101000201A4FF47A746143A1F57A71B1FBF4F4AC
:101020000134A04294BF0020012008B1DB681360A6
:10103000002383F3118810BDC017002000000000BA
:101040000368062B11D8436B0A681A608A889A8055
:10105000436B00F128020633934288BF031D4363AC
:1010600003680133036000207047012070470000CF
:1010700037B50B4B8DE806005A681D466AB1202330
:1010800083F3118869461830FFF7DAFF6868022198
:10109000FFF706F9002383F3118803B030BD00BFCA
:1010A000FC1600200000000000000000000000000E
:1010B00007B501238DF801308DF800108DF802205E
:1010C000202383F3118869461830FFF7B9FF054BD9
:1010D00002215868FFF7E4F8002383F3118803B076
:1010E0005DF804FBFC16002000000000000000007A
:1010F0002DE9F34704468A46054600271AF80730CB
:101100005FFA87F993F001023AD02E78002E37D19A
:1011100001232B70AE706E70B04606EB4603E35CA5
:10112000F2B28BB102AB43444A4508F1010803F81F
:10113000062C5FFA88F807D0237D2BB9012323758D
:1011400020460321FFF7B4FF0136042EE5D1B8F1A4
:10115000010F09D1002323758DF80030244BDA6884
:10116000DB68E260236102E005238DF800308DF832
:10117000018002AB204613E90600FFF779FF2EE05D
:1011800023B12B7813B100232B7028E03AB32B78CE
:101190002BB3237D1BBBAB7863B904F1100040F285
:1011A0005B21FFF72DFF28B10121A97020464A4697
:1011B000FFF77EFF6B7804F10C003BB940F20F3172
:1011C000FFF71EFF58B101236B7003E0B421FFF756
:1011D00017FF20B1204604214A46FFF769FF013777
:1011E000042F05F1030589D102B0BDE8F08700BFE7
:1011F000C0170020000000000000000000000000F8
:10120000034659690148FFF773BF00BF8C090020EE
:10121000124B984205D103F56053DA6942F001029E
:1012200019E00F4B984205D103F55053DA6942F0AB
:10123000020210E00B4B984205D103F54053DA69E6
:1012400042F0040207E0084B984205D103F5305301
:10125000DA6942F00802DA61704700BF000002401C
:101260000004024000080240000C024000000000A0
:10127000013810F8013F2BB1034A11880906FBD54C
:101280009380F6E7704700BF00380140000000007F
:10129000F8B50D46044616461F46FFF7B9FF68002D
:1012A00003218140022202FA00F02368C9430B4067
:1012B00023602368AE40034323600123AB40A28830
:1012C000072D92B222EA0303A380A38888BF083DBA
:1012D00046EA0306B6B2A680E3684FEA850501EA4E
:1012E0000303E360E368E360A36801EA0301A1602C
:1012F000A36840EA030094BF00230123A06004EB2D
:1013000083040F23AB4007FA05F5226A22EA0303A0
:101310002362236A1D432562F8BD0000000000001F
:10132000B0F1804F04D1234B5A6A42F0010207E02A
:10133000214B984206D103F50D335A6A42F002025E
:101340005A6270471D4B984205D103F50C335A6A17
:1013500042F00402F4E71A4B984205D103F50A3330
:101360005A6A42F01002EBE7164B984205D103F59A
:1013700009335A6A42F02002E2E7134B984205D142
:1013800003F598331A6A42F0040210E00F4B9842BA
:1013900005D103F596331A6A42F0080207E00C4BB8
:1013A000984205D103F594331A6A42F010021A628A
:1013B000704700BF003802400004004000080040B1
:1013C000001000400014004000080140000C0140E3
:1013D00000100140000000000000000000000000BC
:1013E00038B50446B4F1804F08461D46114602D177
:1013F0000022012316E0294B9C4203D003F58063B1
:101400009C4202D1002202230CE0254B9C4207D0D3
:1014100003F580639C4203D003F580639C4203D1B3
:1014200000220323FFF734FF049BE3629DF814308E
:10143000012B05F1FF3314BF06220722032B2BD803
:10144000DFE803F0020C1620238B9BB243EA021262
:101450002283238C9BB243F001031CE0238B9BB2BD
:1014600043EA02322283238C9BB243F0100312E042
:10147000A38B9BB243EA0212A283238C9BB243F458
:10148000807308E0A38B9BB243EA0232A283238CD1
:101490009BB243F48053238438BD00BF0004004056
:1014A00000080140000000000000000000000000F3
:1014B00010B5B3F1804F044663600846114608D169
:1014C00003F50E335A6A42F001025A6200220123E8
:1014D0002CE0464A934204D1454B5A6A42F002023C
:1014E00006E0444A934207D1414B5A6A42F0040253
:1014F0005A620022022319E03F4A934204D13C4B36
:101500001A6A42F004020EE03C4A934204D1384B7E
:101510001A6A42F0080206E0394A934208D1344B75
:101520001A6A42F010021A6200220323FFF7B0FE8B
:101530006368B3F1804F06D02C4A934203D002F582
:101540008062934201D12F4A00E02F4A226001229B
:101550001A8000229A80BDF80C209DF80810DA62EB
:101560009DF810200139002A0CBF0622072203290A
:1015700037D8DFE801F0020F1C2903F13401A16024
:10158000198B89B241EA02121A831A8C92B242F084
:10159000010225E003F13801A160198B89B241EA0B
:1015A00002321A831A8C92B242F0100218E003F150
:1015B0003C01A160998B89B241EA02129A831A8C8C
:1015C00092B242F480720BE003F14001A160998B6A
:1015D00089B241EA02329A831A8C92B242F4805262
:1015E0001A84A36800221A6010BD00BF00040040E6
:1015F000003802400008004000080140000C014093
:10160000001001408409002088090020000000002B
:101610004368DA6A514307D002681268B2FBF1F1FD
:1016200001B1013989B2198570470000000000003E
:1016300008B5FFF71DFE0648FFF71AFE054B9B692C
:101640009869FFF715FEBDE808400348FFF710BE94
:10165000E023000804170020E32300080000000036
:10166000F0B5644685B00025B0FBF1F301FB130231
:10167000092A05F1010594BF3032373201AED2B2EA
:101680007719184607F8012C002BEDD12F46236857
:101690009D420ED2227CE3680AB1302000E0202077
:1016A0009847A368626801339342A3600FD2013563
:1016B000EDE7A3686568ED1AAF4238BF3D462B449D
:1016C000A36025B1013DE368705D9847F9E705B077
:1016D000F0BD00000000000000000000000000005D
:1016E0002DE9F0431C4687B0002304900291039338
:1016F00001938DF814301078561C50B125280CD069
:10170000049B9847039B029A013393420393C0F0D2
:101710009580039807B0BDE8F0830022019211463E
:1017200016F8013BA3F13000C5B2092D07D812B954
:10173000302B08BF01210A2303FB0202F0E70192CC
:1017400003F0DF02532A8DF8141010D1251D2468F0
:1017500014F8013B002B6BD0039B5A1C0392029A96
:10176000934265D214F8010C049B9847F0E7632B71
:101770000BD1049B20789847039B029A0133934234
:1017800004F10405039353D3C3E7582B05D1251D5A
:101790000DF1040C2068102106E0752B07D120689C
:1017A000251D0DF1040C0A21FFF75AFF40E0642BC0
:1017B00011D1251D2468002C09DA049B2D2098479F
:1017C000039B029A013393420393A2D264420DF128
:1017D000040C2046E7E7412B29D101238DF8143072
:1017E0000223D4F80090D4F8048004F10C05A76813
:1017F0000193002444451BDA002C0CDC0DF1040C91
:1018000019F804001021FFF72BFF029B039A9A425C
:101810000ED20134EEE7002FF0D0049BF8B29847C7
:10182000039B029A013393420393E7D300E02546DA
:10183000029B039A9A42BFF46CAF2C4632465AE799
:10184000D0F8E0355A1CC0F8E0251970D0F8E03522
:1018500000F2DC52934228BFC0F8E0057047000058
:1018600001460148FFF7ECBFDC0900200000000042
:10187000D0F8DC1500F2DC52D0F8E835521A9A4262
:1018800028BF1A46C0F8EC2562B1002380F8E43581
:10189000054B5B6AD9605A6092221A601A6842F05E
:1018A00001021A60704700BF00230008000000001A
:1018B00058B50E46D0F8E8150446C1F5BB6113468D
:1018C000094804313246FFF70BFFD4F8E8351844D5
:1018D00094F8E435C4F8E80523B12046BDE8584043
:1018E000FFF7C6BF58BD00BF611800080000000028
:1018F0000EB403B503AA52F8041B202383F3118806
:101900000192FFF7D5FF002383F3118802B05DF841
:1019100004EB03B07047000000000000000000006E
:1019200038B5012380F8E4352C4C0023C0F8E835A5
:10193000E269C0F8E00542F00102C0F8DC05E261AE
:10194000274A284D106820F440201060106840F4A9
:1019500000201060908820F400700004000C90803B
:10196000908880B29080D06820F44020D060D06809
:10197000D060906820F440209060906840F400208F
:101980009060506A20F0F0005062506A40F07000A1
:101990005062226A284642F480422262A4F58034D2
:1019A0004FF40052A281104A9268B2FBF1F18AB260
:1019B0002281072123820D4AFFF73AF92B680C4A4E
:1019C0009A6092221A600823A3818023A382A389AC
:1019D0009BB243F40053A38138BD00BF00380240DE
:1019E000000002402423000880090020711A00082A
:1019F000043801400000000000000000000000006A
:101A0000194A10B5536A0F24196821F00F011960A3
:101A1000916A92F82C2004FA02F20A60D0F8DC45B0
:101A2000D0F8EC15D0F8E825521A214400F2DC5425
:101A3000A14228BF0146C0F8E825C0F8DC151AB954
:101A4000012380F8E43510BDD960611A914238BF96
:101A50000A46C0F8EC255A6092221A601A6842F0D1
:101A600001021A6010BD00BF002300080000000042
:101A70000148FFF7C5BF00BFDC09002000000000DF
:101A800070B54500EDB20321A940134BDA6942F06D
:101A90000202DA61A3F550531C68CA4314401C606B
:101AA000012404FA05F504FA00F01E6835431D60B0
:101AB0009D88ADB225EA00009880988880B2988011
:101AC000D8681040D860D868D860986802409A609A
:101AD0009A681143996070BD003802400000000010
:101AE000114B4FF480524FF400505A8358834FF4F7
:101AF000806058831A835A83082211F0800F4FF4B4
:101B0000806002F1FF3214BF1883588349004FF4FC
:101B1000805012F0FF021883C9B25883EDD1024BF6
:101B20004FF400521A837047000402400000000086
:101B3000F0B5104C0625B0F8CC3605FB0141002469
:101B40000D5D012A04BFED43EDB25E1CB6B26F001D
:101B500000EB4303B6F5587F47F0010704F1010499
:101B60009F8134BF33460023062CE9D1A0F8CC3640
:101B7000F0BD00BFF02300080000000000000000DE
:101B8000014600220148FFF7D3BF00BFCC0F002061
:101B900008B417B502EB420205AB53F8044B5201EF
:101BA00001EB410102EB4101A0F8CC1622461021C5
:101BB00004480193FFF794FD03B0BDE8104001B065
:101BC000704700BF811B00080000000000000000FB
:101BD0000023C21802330121B3F5D86F9181F8D1E7
:101BE000704700000000000000000000000000003E
:101BF0002DE9FF41704C00260222642321468DE826
:101C00004C000E226D4B0546FFF752FC0B20FFF7F0
:101C100037FF0D20FFF734FF0C20FFF731FF0A20BC
:101C2000FFF72EFF4FF400684FF480534FF4005736
:101C3000638307202783A4F81A80FEF719FDAF21DC
:101C4000A4F818802846FFF74BFFA4F81A80072055
:101C5000FEF70EFDA4F818800720FEF709FD2846C0
:101C6000AF21FFF73DFF2846A421FFF739FF2846A3
:101C70002F21FFF735FF28464021FFF731FF284687
:101C8000C821FFF72DFF2846B021FFF729FF28467E
:101C90001021FFF725FF31462846FFF721FF284690
:101CA000FFF796FF464BDFF82881DA690C3542F0E2
:101CB0000202DA61226822F040722260226842F059
:101CC00000722260A08820F480500004000CA080E4
:101CD000A28892B2A280E26822F04072E260E268DA
:101CE000E260A26822F04072A260A26842F04072F4
:101CF000A260626A22F470226262626A42F4E022A6
:101D00006262DA6942F00202DA61226822F4401269
:101D10002260226842F400122260A08820F48060D1
:101D20000004000CA080A288404692B2A280E26823
:101D300022F44012E260E268E260A26822F44012FB
:101D4000A260A26842F44012A260626A22F4706249
:101D50006262626A42F4E06262625A6A42F480221B
:101D60005A62184AA3F5F8335168174A9F81B1FBAC
:101D7000F2F292B21A814FF410621A8243F2080210
:101D80009A8180229A820F2132463346FEF750FF15
:101D9000D8F800300D4A9A604FF45872DD605A60EE
:101DA0004FF4B6621A6067831A6842F001021A6043
:101DB00004B0BDE8F08100BF00040240000801400B
:101DC0000038024080090020A0860100044800403D
:101DD0000C230008000000000000000000000000CC
:101DE00008B5202383F3118803689B689847002374
:101DF00083F3118808BD000000000000000000000F
:101E0000836A00221A607047000000000000000092
:101E1000C36910B5B3F8051004462030FFF7F8FB8E
:101E2000E369A26AD3F80110073389B21160002078
:101E3000E36110BD00000000000000000000000091
:101E4000036910B5044613B10430FEF781FCE36961
:101E50001A78032AFDD8DFE802F00209192823685E
:101E600020461B6898470128F1D110BDD3F8012006
:101E70000733E361002AEAD04FF47A735A43A2F59C
:101E80007A72B2FBF3F1201D013108E0D3F8013082
:101E9000A269C3EBC3031A44E261201D012123465A
:101EA000024ABDE81040FEF72BBC10BDE11D000842
:101EB000C268836803EB8203196370470000000067
:101EC00008B520300021FFF7F3FF08BD0000000037
:101ED0004FF47A725143A1F57A71B1FBF2F10346E6
:101EE00001310430014AFEF70BBC00BFE11D0008C0
:101EF00038B5C26990F83030517904468B422AD007
:101F0000D2F80150203035B9FFF7D2FFE3695A7992
:101F100084F8302011E08B4201D2013301E002D974
:101F2000013B84F8303094F83010FFF7C1FFE369CB
:101F300094F830205979914202D10633E3610CE0E4
:101F4000D3F801100432B1FBF2F120460131FFF762
:101F5000BFFF012038BD0632C261002038BD00003D
:101F6000036910B5044613B10430FEF7F1FBE369D1
:101F70001A78032AFDD8DFE802F00209111C236851
:101F800020461B6898470128F1D110BDD3F80110F5
:101F90000633E3610029EAD0204608E0D3F80120A7
:101FA000A369062101FB02332046E3610121FFF70B
:101FB0008FFF10BD000000000000000000000000C6
:101FC00008B5202383F3118803688161C1619B6890
:101FD0009847002383F3118808BD0000000000002B
:101FE00083B506464FF0FF30FEF77AF98307F9D53F
:101FF00018498A690846002AF4D08C6C01F1400E19
:1020000027786378A5780634744588BF01F11C00F1
:1020100002F1FF328CBF88648C648A610E4800959F
:102020000E493A46FFF764FC17F0FB0FE0D10C486D
:102030000C49FFF7C5FF022D01D0032DD8D1202375
:1020400083F3118804217068FEF72AF9002383F3D3
:102050001188CDE78C090020DC090020702A0008D7
:102060009C160020C02A00080000000000000000AC
:10207000F0B4840743D0541E002A3ED0CDB20346AC
:1020800003E0621E002C38D0144603F8015B9A0767
:10209000F7D1032C2AD9CDB245EA05250F2C45EA04
:1020A000054515D9A4F110073F0903F1100606EB09
:1020B00007161A46156055609560D5601032B24219
:1020C000F8D104F00F040137032C03EB07130DD9EB
:1020D0001E462246043A032A46F8045BFAD8221F19
:1020E00022F003020432134404F003042CB1C9B2F9
:1020F0001C4403F8011BA342FBD1F0BC70471446FB
:102100000346C6E7000000000000000000000000D9
:10211000030406080C101820300000000000000026
:102120000001020304060708090000000001020381
:10213000040000000000000000000000000000009B
:1021400022636845767452656769737465724D6180
:10215000736B22282900226368457674556E726578
:102160006769737465722228290022636845767452
:102170005369676E616C492228290022636845769D
:102180007442726F6164636173744D61736B492251
:102190002829002263684576745369676E616C2252
:1021A00028290022636845767444697370617463FA
:1021B00068222829006368457674446973706174E5
:1021C000636828292C202331000000000000000053
:1021D0006D61696E00168011040428080C10141833
:1021E000001C1D001E000000000000000000000098
:1021F000636853636852656164794928292C2023F8
:10220000310000000000000000000000000000009D
:1022100069646C6500000000000000000000000020
:102220002263685468644372656174654922282991
:10223000002263685468645365745072696F7269F0
:102240007479222829006368546864526573756D37
:102250006528292C20233100226368546864536C5C
:10226000656570222829006368546864457869743C
:102270005328292C2023310000000000000000001A
:1022800022636856545365744922282900226368E2
:102290005654526573657449222829006368565460
:1022A00052657365744928292C20233100000000F1
:1022B00022646D6153747265616D416C6C6F636112
:1022C00074652228290022646D6153747265616D02
:1022D00052656C6561736522282900646D615374D1
:1022E0007265616D52656C6561736528292C2023C8
:1022F00031000000000000000000000000000000AD
:10230000086002400460024000000B001C600240B4
:102310000460024004010C0030600240046002408E
:1023200008020D0044600240046002400C030E00ED
:10233000586002400460024010040F006C600240CC
:1023400004600240140510008060024004600240F6
:10235000180611000000000000000000000000004E
:10236000020000000400000008000000000000005F
:10237000A023000864080020000000000000000006
:10238000040000000000000000000000011200082E
:10239000C0230008780900200000000000000000B1
:1023A0000004024002000200000402400500020096
:1023B00053656E736F727300000000000000000030
:1023C0000000024008000100000002400F00010070
:1023D0000004024006000100000402400F0001005A
:1023E0002040000D00000000000000000000000080
:1023F000000000000000007CA28AA27C007CD6F6CF
:10240000D67C00387C3E7C3800183C7E3C18000CA2
:102410006CFE6C0C00183A7E3A1800001818000088
:10242000FFFFE7E7FFFF003C24243C00FFC3DBDBAA
:10243000C3FF000C12526C700060949E9460000602
:102440000EFC402000067E50ACFC0054386C385422
:102450000000FE7C38100010387CFE0000286CFE66
:102460006C280000FA00FA00006090FE80FE004434
:10247000B2AA9A4400060606060000286DFF6D28E1
:10248000002060FE602000080CFE0C080010107C8C
:1024900038100010387C1010001E020202020010DA
:1024A0007C107C10000C3CFC3C0C00C0F0FCF0C02C
:1024B000000000000000000060FA600000E0C000C2
:1024C000E0C000247E247E240024D456480000C6A8
:1024D000C81026C6006C926A040A0000E0C0000022
:1024E00000007C8200000000827C000000107C382C
:1024F0007C100010107C1010000007060000001077
:102500001010101000000606000000040810204003
:10251000007C8282827C000042FE020000468A9299
:10252000926200449292926C00182848FE0800F4CF
:102530009292928C003C5292920C00808E90A0C09D
:10254000006C9292926C0060929294780000363601
:1025500000000000373600000010284482000024EC
:10256000242424240000824428100040809A906093
:10257000007C82BAAA78007E8888887E00FE9292CB
:10258000926C007C8282824400FE8282827C00FE09
:102590009292928200FE90909080007C8292925E55
:1025A00000FE101010FE000082FE8200000C0202ED
:1025B00002FC00FE1028448200FE0202020200FE1D
:1025C000402040FE00FE402010FE007C8282827C83
:1025D00000FE90909060007C828A847A00FE909049
:1025E000986600649292924C008080FE808000FC8D
:1025F000020202FC00F8040204F800FC023C02FCA7
:1026000000C6281028C600E0100E10E0008E92A22E
:10261000C2000000FE82820000402010080400007A
:102620008282FE0000204080402001010101010162
:102630000000C0E0000000042A2A2A1E00FE222218
:10264000221C001C22222214001C222222FE001C1A
:102650002A2A2A1000107E90900000182525253E79
:1026600000FE20201E00000000BE0200000201212A
:10267000BE0000FE08142200000000FE0200003E22
:102680002018201E003E20201E00001C2222221C9A
:10269000003F2222221C001C2222223F00221E2256
:1026A000201000102A2A2A0400207C222400003C4A
:1026B00002043E00003804020438003C060C063CCC
:1026C000003608083600003905063C0000262A2A94
:1026D000320000107C828200000000EE000000004A
:1026E00082827C10004080408000003C64C4643CD6
:1026F00022882288228855AA55AA55AADD77DD7737
:10270000DD77000000FF0000101010FF00005050A7
:1027100050FF000010FF00FF0000101F101F0000FE
:102720005050507F000050DF00FF000000FF00FF0E
:102730000000505F407F000050D010F0000010F00B
:1027400010F00000505050F000001010101F00005A
:10275000000000F01010101010F010101010101FDA
:102760001010000000FF10101010101010101010AA
:1027700010FF1010000000FF505000FF00FF10106D
:1027800000F010D05050007F405F505050D010D01B
:102790005050505F405F505000FF00DF505050508D
:1027A0005050505050DF00DF5050505050D05050DB
:1027B00010F010F010105050505F5050101F101FAC
:1027C000101000F010F01010000000F05050000049
:1027D000007F5050001F101F101010FF10FF10102E
:1027E000007ED252D242505050FF5050101010F084
:1027F00000000000001F1010FFFFFFFFFFFF0F0F82
:102800000F0F0F0FFFFFFF000000000000FFFFFF92
:10281000F0F0F0F0F0F0007C92928244001C2A2A42
:1028200022140080027E02800000803E820000E4CC
:1028300012D212FC00B94546BC00006090906000C6
:10284000001CAA2AAA10000018180000000010009E
:102850000000000C027C4040FE6018FEC8C8547C9A
:1028600028287C54003C3C3C3C0000000000000058
:10287000007E8888887E00FE9292928C00FE929262
:10288000926C00FE80808080037E8282FE0300FEC8
:102890009292928200EE10FE10EE449292926C00A0
:1028A00000FE040810FE007E8488907E00FE102842
:1028B000448200027E8080FE00FE402040FE00FE3A
:1028C000101010FE007C8282827C00FE808080FEE0
:1028D00000FE90909060007C82828244008080FEA6
:1028E000808000E4121212FC007088FE887000C61E
:1028F000281028C600FE0202FE0300E0101010FEA1
:1029000000FE02FE02FE00FE02FE02FFC080FE127A
:10291000120C00FE12120CFE00FE1212120C0044E9
:102920008292927C00FE107C827C0066989090FEE1
:1029300000042A2A2A1E003C5252528C003E2A2AA7
:102940002A14003E20203000031E22223E03001CD9
:102950002A2A2A100036083E08360014222A2A1491
:10296000003E0408103E003E0448503E003E08145D
:102970002200021C20203E00003E1008103E003EB7
:102980000808083E001C2222221C003E2020203E77
:10299000003F2222221C001C222222140020203E62
:1029A0002020003905063C000018243E241800367B
:1029B00008083600003E02023E0300300808083EC8
:1029C000003E023E023E003E023E023F30203E0AF2
:1029D0000A04003E0A0A043E003E0A0A0A040014E1
:1029E000222A2A1C003E081C221C00122C28283EE9
:1029F0000000000000000000111E0008011E000879
:102A0000411E00080000000000000000000000005F
:102A10000000000000000000F11E0008C11E0008B8
:102A2000611F00080000000000000000000000001E
:102A30000002000000B7070136000000000000009F
:102A4000000000000001360000000000000200004D
:102A500000B7070136000000000000000000000081
:102A60000003000000000000000000000000000063
:102A70000D45696E666F3A2025752C2025752C2032
:102A80002575000D53616C656D426F782041484299
:102A90003D25750041697961204665616E61726FFF
:102AA0002100000000000000000000000000000005
:102AB0000076020000FF030000000000000000009C
:102AC0000001000000B70701360000000000000010
:0C2AD000000000000003000000000000F7
:04000005080008E106
:00000001FF
